:100000000C9484010C94A1010C94A1010C94A10105
:100010000C94A1010C94A1010C94A1010C94A101D8
:100020000C94A1010C94A1010C94A1010C94A101C8
:100030000C94A1010C94C7070C94A1010C94A1018C
:100040000C94E4070C94A1010C94A1010C94A1015F
:100050000C94A1010C94A1010C94A1010C94A10198
:100060000C94A1010C94A101BC5F9C60A46184620A
:10007000B6639664B0659F66B567FFFF0000000039
:1000800000000000002F000000000700070000141F
:100090007F147F1400242A7F2A120062640813232D
:1000A00000364955225000000503000000001C22C4
:1000B0004100000041221C000014083E0814000802
:1000C000083E0808000000A06000000808080808B2
:1000D000000060600000002010080402003E51494A
:1000E000453E0000427F40000042615149460021E8
:1000F00041454B31001814127F1000274545453902
:10010000003C4A494930000171090503003649495C
:10011000493600064949291E000036360000000015
:100120005636000000081422410000141414141460
:100130000000412214080002015109060032495909
:10014000513E007C1211127C007F49494936003E25
:1001500041414122007F4141221C007F49494941E0
:10016000007F09090901003E4149497A007F0808DA
:10017000087F0000417F4100002040413F01007F97
:1001800008142241007F40404040007F020C027F63
:10019000007F0408107F003E4141413E007F090975
:1001A0000906003E4151215E007F0919294600469B
:1001B000494949310001017F0101003F4040403F72
:1001C000001F2040201F003F4038403F00631408BC
:1001D0001463000708700807006151494543000097
:1001E0007F41410000552A552A55000041417F00BA
:1001F00000040201020400404040404000000102AF
:100200000400002054545478007F48444438003897
:100210004444442000384444487F0038545454181F
:1002200000087E0901020018A4A4A47C007F080431
:1002300004780000447D4000004080847D00007F01
:10024000102844000000417F4000007C041804781E
:10025000007C0804047800384444443800FC24241A
:1002600024180018242418FC007C08040408004802
:100270005454542000043F444020003C4040207C23
:10028000001C2040201C003C4030403C0044281012
:100290002844001CA0A0A07C004464544C440000EE
:1002A000087741000000006300000000417708006B
:1002B000000804080804003A4040207A003D40400D
:1002C000403D002154545479007D1211127D0039B3
:1002D00044444439003D4242423D000205020000D0
:1002E000007E01495573007C1010081CAE2000B040
:1002F000C8001040813FA1A6A81FA4D300D5F0D903
:1003000022DA02DB208D140011241FBECFEFD8E0CB
:10031000DEBFCDBF13E0A0E0B1E0E6E7F4E102C04C
:1003200005900D92AC35B107D9F723E0ACE5B3E009
:1003300001C01D92A936B207E1F70E9499060C94FC
:10034000390A0C9400001092B90088E48093B80038
:1003500084E08093BC00089594EA9093BC0020E46C
:1003600031E009C02150310931F480916803816086
:100370008093680308959091BC0099231CF0211587
:10038000310581F78093BB0084E88093BC0080E452
:1003900091E008C0019731F48091680382608093F6
:1003A000680308952091BC00222314F0009791F770
:1003B000089584E98093BC0008958093BB0084E88D
:1003C0008093BC0080E491E008C0019731F48091F3
:1003D000680384608093680308952091BC00222301
:1003E00014F0009791F708950F931F93CF93DF9325
:1003F0008C01D62F88E70E94AC0180E00E94DD01CD
:10040000C0E007C0F801EC0FF11D80810E94DD0102
:10041000CF5FCD17B8F30E94D901DF91CF911F9123
:100420000F910895EF92FF920F931F93CF93DF9355
:100430007C018B0188E70E94AC0180E40E94DD0111
:10044000C0E0D0E007C0F701EC0FFD1F80810E94E3
:10045000DD012196C017D107B0F30E94D901DF91C9
:10046000CF911F910F91FF90EF900895CF93DF935D
:1004700000D000D0CDB7DEB7813890F4643080F47E
:10048000ECE5F3E0808361836055698391E29A83B0
:100490008B838FE78C8364E0CE0101960E94F40188
:1004A0000F900F900F900F90DF91CF910895982F9C
:1004B000990F980F892F880F0E943602089560E0E7
:1004C00080E00E94570208951F93CF93DF93CDB72A
:1004D000DEB7C058D1090FB6F894DEBF0FBECDBF4E
:1004E000FE01319680E8DF011D928A95E9F710E060
:1004F0000BC0612F80E00E94570260E870E0CE01DF
:1005000001960E9412021F5F143098F30E945F024E
:10051000C058DF4F0FB6F894DEBF0FBECDBFDF91DE
:10052000CF911F9108951F93CF93DF93CDB7DEB77F
:100530006C970FB6F894DEBF0FBECDBF182F0E9488
:10054000A30120E00EC0822F90E0FC01E451FD4F9A
:10055000E491A1E0B0E0AC0FBD1FA80FB91FEC9370
:100560002F5F2B3180F31C8F6CE1CE0101960E942E
:10057000F4010E9464026C960FB6F894DEBF0FBEC1
:10058000CDBFDF91CF911F910895CF92DF92EF926F
:10059000FF920F931F93CF93DF93CDB7DEB76C9786
:1005A0000FB6F894DEBF0FBECDBF893001F118F44D
:1005B000883039F052C08A30E9F18D3009F447C0F3
:1005C0004CC00CE513E0F80180819091000161813D
:1005D000891B0E94570280E20E94C502F8018081B7
:1005E000909100016181891B0E94570259C180913D
:1005F0005C0390910001292F30E0220F331F220F5E
:10060000331FB901680F711D45E150E0FA01E21B8B
:10061000F30B6E177F0740F4990F990F60915D03FC
:10062000890F0E9457023CC160915D0385E10E94E1
:10063000570236C180915D03833008F031C160916B
:100640000001680F80915C030E94570229C16091EC
:100650005D0380E00E94570223C150915C035A372A
:1006600008F01EC1803208F41BC18052E9E6F0E0B8
:10067000E4918E1798F423C0F901EE0FFF1FE8599B
:10068000FF4FE491F0E0B097282F30E0E217F30736
:1006900019F4FB01849110C09F5F01C090E0292FE5
:1006A00030E0F901EE0FFF1FBF0167597F4FFB01DB
:1006B00044914F3F09F78FEF8F3F09F4F1C09091BC
:1006C0000001923009F0BEC0252F30E0245F3F4F7B
:1006D0002138310508F0E4C0F12C4FC06F2D70E0D7
:1006E000FB01EE0FFF1F21E030E02C0F3D1FE20F5A
:1006F000F31F15861486282F30E0F901EE0FFF1F37
:10070000E20FF31FEE0FFF1FE60FF71FE458FF4F36
:10071000E49090E02FC0A92FB0E02E2D30E0092EFC
:1007200002C0359527950A94E2F720FF22C0AA0F50
:10073000BB1F21E030E069010A2E02C0CC0CDD1C99
:100740000A94E2F78B01000F111FE1E0F0E0EC0FDB
:10075000FD1FE00FF11F448555854C295D29119639
:1007600002C0220F331FAA95E2F7242B352B3587C1
:1007700024879F5F983078F2F39435E03F1508F0B6
:10078000ADCF20E015C0822F90E0880F991FE1E0E7
:10079000F0E0EC0FFD1FE80FF91F34853083019660
:1007A000E1E0F0E0EC0FFD1FE80FF91F30832F5F51
:1007B000263048F36CE070E0CE0101960E941202F0
:1007C000ECE5F3E081818F54898F81E28A8F80810B
:1007D0008B8F8FE78C8F64E0CE0149960E94F401E5
:1007E00020E015C0822F90E0880F991FE1E0F0E033
:1007F000EC0FFD1FE80FF91F358530830196E1E00E
:10080000F0E0EC0FFD1FE80FF91F30832F5F26305B
:1008100048F36CE070E0CE0101960E9412020CE5F4
:1008200013E0F80181818055898F8081845F8B8FEF
:1008300064E0CE0149960E94F401F8018081845F52
:1008400080832EC0252F30E02A5F3F4F21383105AD
:1008500038F590E018C0282F30E0492F50E0F9011A
:10086000EE0FFF1FE20FF31FEE0FFF1FE40FF51F48
:10087000E458FF4FE491A1E0B0E0AC0FBD1FA40F1E
:10088000B51FEC939F5F963030F366E070E0CE01C9
:1008900001960E941202ECE5F3E080818A5F80837A
:1008A0006C960FB6F894DEBF0FBECDBFDF91CF912F
:1008B0001F910F91FF90EF90DF90CF900895CF930D
:1008C000DF93EC0103C021960E94C502888181114B
:1008D000FACFDF91CF9108950E94640260E080E03A
:1008E0000E945702089520E030E01AC08BB1806466
:1008F0008BB94FEF81EE94E0415080409040E1F79A
:1009000000C000008BB18F7B8BB94FEF81EE94E07C
:10091000415080409040E1F700C000002F5F3F4F02
:10092000273031051CF3089520E030E01AC08BB168
:1009300080688BB94FEF81EE94E041508040904049
:10094000E1F700C000008BB18F778BB94FEF81EEDC
:1009500094E0415080409040E1F700C000002F5FDC
:100960003F4F273031051CF30895CF92DF92EF926D
:10097000FF9284B1826084B91092800085B1826058
:1009800085B925E32A95F1F7000085B18D7F85B9FA
:10099000109285001092840085E480938100B59BBD
:1009A000FECF809186009091870020E226BB25E053
:1009B00020938100B59BFECF6091860070918700E7
:1009C00020E226BB681B790B80E090E00E941509AD
:1009D00024E43BE84CE85FE30E94CC090E94DF0876
:1009E0006F3271050CF0F1C014BC85E085BD81E06B
:1009F00080936E00789410925F0310925E037AC029
:100A000085B1826085B985E38A95F1F7000085B1EB
:100A10008D7F85B9109285001092840085E48093C3
:100A20008100B59BFECF809186009091870020E2E7
:100A300026BB25E020938100B59BFECF6091860008
:100A40007091870020E226BB681B790B80E090E064
:100A50000E94150924E43BE84CE85FE30E94CC09BE
:100A60000E94DF0880915E0390915F038B379105B0
:100A70000CF440C00E946C0489E091E00E945F0485
:100A800020E030E040E85FE36091010170910201F5
:100A900080910301909104010E94FB076093010182
:100AA0007093020180930301909304019FEF27EA62
:100AB00081E6915020408040E1F700C0000085B100
:100AC000846085B99FEF29E688E1915020408040FD
:100AD000E1F700C0000085B18B7F85B99FEF29E663
:100AE00088E1915020408040E1F700C000000E9462
:100AF0006C040BC06F32710544F480915E039091D9
:100B00005F03863991050CF47BCF2091050130916C
:100B10000601409107015091080160910101709117
:100B2000020180910301909104010E946D0860937D
:100B300064037093650380936603909367032DECC1
:100B40003CEC4CEC5EE30E946808181634F08BB164
:100B500088608BB98BB18F7C8BB9C0906403D090C7
:100B60006503E0906603F09067032DEC3CEC4CECE1
:100B70005EE3C701B6010E94C709181684F42DEC84
:100B80003CEC4CE45FE3C701B6010E94680888238F
:100B900034F48BB180618BB98BB1877D8BB9609157
:100BA00064037091650380916603909167032DEC57
:100BB0003CEC4CE45FE30E94C709882334F08BB11E
:100BC00080628BB98BB1877E8BB9FF90EF90DF90FD
:100BD000CF900895109261031092600387EF92EC1A
:100BE00090938500809384001092800085E080932C
:100BF000810081E080936F0078940E946C048DE105
:100C000091E00E945F042FEF8BE792E92150804032
:100C10009040E1F700C000000E946C0480E691E083
:100C20000E945F041AC04A9905C00E946C0481E0CA
:100C300090E0089549990AC02FEF89E698E1215084
:100C400080409040E1F700C000000EC0CD972CF02E
:100C50000E946C0482E090E008958091600390917E
:100C6000610382349105FCF20E94B5040E946C0479
:100C70008AE991E00E945F04109261031092600380
:100C80001DC00E946C0481E090E00895499916C04F
:100C90002FEF89E698E1215080409040E1F700C0B5
:100CA00000000E94B5040E946C0486EE91E00E9450
:100CB0005F04109261031092600320C04A99E6CF4E
:100CC000E0CF0E946C0481E090E00895499916C03D
:100CD0002FEF89E698E1215080409040E1F700C075
:100CE00000000E94B5040E946C0485E192E00E941D
:100CF0005F04109261031092600318C04A99E6CF16
:100D0000E0CF0E946C0481E090E0089549990EC004
:100D10002FEF89E698E1215080409040E1F700C034
:100D2000000010926F0080E090E008954A99EECFA5
:100D3000E8CF8FEA0E9493020E946C048AB1886F08
:100D40008AB98BB187608BB984B1846084B985B16D
:100D50008B7F85B9209105013091060140910701F3
:100D6000509108016091010170910201809103018D
:100D7000909104010E946D08609364037093650371
:100D800080936603909367032DEC3CEC4CEC5EE3A0
:100D90000E946808181634F08BB188608BB98BB14B
:100DA0008F7C8BB9C0906403D0906503E09066039C
:100DB000F09067032DEC3CEC4CEC5EE3C701B60110
:100DC0000E94C709181684F42DEC3CEC4CE45FE358
:100DD000C701B6010E946808882334F48BB1806192
:100DE0008BB98BB1877D8BB960916403709165037A
:100DF00080916603909167032DEC3CEC4CE45FE33B
:100E00000E94C7098823CCF18BB180628BB98BB16A
:100E1000877E8BB932C00E94B504609164037091E3
:100E2000650380916603909167032DEC3CEC4CE4E4
:100E30005FE30E946808882344F460E080E00E9439
:100E4000570286E492E00E945F046091640370910F
:100E5000650380916603909167032DEC3CEC4CE4B4
:100E60005FE30E94C709882344F060E080E00E94AD
:100E700057028DE892E00E945F044899CCCF6091C0
:100E800064037091650380916603909167032DEC74
:100E90003CEC4CE45FE30E94C70988230CF0BBCF15
:100EA0000E946C040E94EA0590936303809362039E
:100EB00081309105B1F40E94B5040E946C0485ED67
:100EC00092E00E945F040E9494042FEF83E294EF6B
:100ED000215080409040E1F700C000000E946C0467
:100EE00039CF82309105B1F40E94B5040E946C04A0
:100EF0008AE093E00E945F040E9494042FEF83E253
:100F000094EF215080409040E1F700C000000E9423
:100F10006C0420CF892B31F60E94B5040E946C042A
:100F200082E393E00E945F040E9473042FEF87EA3C
:100F300091E6215080409040E1F700C0000085B16B
:100F4000846085B92FEF89E698E121508040904078
:100F5000E1F700C0000085B18B7F85B920E030E06B
:100F600040E85FE36091010170910201809103010B
:100F7000909104010E94FC076093010170930201AB
:100F800080930301909304010E946C04E3CE1F92AE
:100F90000F920FB60F9211248F939F93809160034D
:100FA000909161030196909361038093600387EFB2
:100FB00092EC90938500809384009F918F910F9085
:100FC0000FBE0F901F9018951F920F920FB60F92A1
:100FD00011248F939F9380915E0390915F030196FC
:100FE00090935F0380935E039F918F910F900FBE4C
:100FF0000F901F9018955058BB27AA270E941308DE
:101000000C948D090E947F0938F00E94860920F017
:1010100039F49F3F19F426F40C947C090EF4E09502
:10102000E7FB0C947609E92F0E949E0958F3BA1742
:10103000620773078407950720F079F4A6F50C94EE
:10104000C0090EF4E0950B2EBA2FA02D0B01B901AB
:1010500090010C01CA01A0011124FF27591B99F02E
:10106000593F50F4503E68F11A16F040A22F232F3A
:10107000342F4427585FF3CF469537952795A7958A
:10108000F0405395C9F77EF41F16BA0B620B730B31
:10109000840BBAF09150A1F0FF0FBB1F661F771FA2
:1010A000881FC2F70EC0BA0F621F731F841F48F457
:1010B000879577956795B795F7959E3F08F0B0CFE0
:1010C0009395880F08F09927EE0F979587950895C7
:1010D0000E94520908F481E008950E9481080C944E
:1010E0008D090E94860958F00E947F0940F029F47A
:1010F0005F3F29F00C94760951110C94C1090C94AE
:101100007C090E949E0968F39923B1F3552391F35A
:10111000951B550BBB27AA2762177307840738F066
:101120009F5F5F4F220F331F441FAA1FA9F335D0C3
:101130000E2E3AF0E0E832D091505040E695001C77
:10114000CAF72BD0FE2F29D0660F771F881FBB1F31
:10115000261737074807AB07B0E809F0BB0B802D0F
:10116000BF01FF2793585F4F3AF09E3F510578F03B
:101170000C9476090C94C1095F3FE4F3983ED4F3D4
:10118000869577956795B795F7959F5FC9F7880F0F
:10119000911D9695879597F90895E1E0660F771F61
:1011A000881FBB1F621773078407BA0720F0621BF2
:1011B000730B840BBA0BEE1F88F7E09508950E941D
:1011C000E6086894B1110C94C10908950E94A6091B
:1011D00088F09F5798F0B92F9927B751B0F0E1F0F8
:1011E000660F771F881F991F1AF0BA95C9F714C0A8
:1011F000B13091F00E94C009B1E008950C94C0098B
:10120000672F782F8827B85F39F0B93FCCF38695E0
:1012100077956795B395D9F73EF49095809570953D
:1012200061957F4F8F4F9F4F0895E89409C097FBBA
:101230003EF490958095709561957F4F8F4F9F4FAD
:101240009923A9F0F92F96E9BB279395F6958795F1
:1012500077956795B795F111F8CFFAF4BB0F11F4B4
:1012600060FF1BC06F5F7F4F8F4F9F4F16C088235B
:1012700011F096E911C0772321F09EE8872F762F91
:1012800005C0662371F096E8862F70E060E02AF0D2
:101290009A95660F771F881FDAF7880F96958795BE
:1012A00097F90895990F0008550FAA0BE0E8FEEF93
:1012B00016161706E807F907C0F012161306E4071A
:1012C000F50798F0621B730B840B950B39F40A2613
:1012D00061F0232B242B252B21F408950A2609F4F1
:1012E000A140A6958FEF811D811D089597F99F67F5
:1012F00080E870E060E008959FEF80EC089500249E
:101300000A941616170618060906089500240A946A
:1013100012161306140605060895092E0394000CF0
:1013200011F4882352F0BB0F40F4BF2B11F460FF7F
:1013300004C06F5F7F4F8F4F9F4F089557FD9058A8
:10134000440F551F59F05F3F71F04795880F97FB89
:10135000991F61F09F3F79F0879508951216130643
:101360001406551FF2CF4695F1DF08C01616170672
:101370001806991FF1CF86957105610508940895A7
:10138000E894BB2766277727CB0197F908950E9439
:10139000520908F48FEF08950E94DF090C948D091B
:1013A0000E947F0938F00E94860920F0952311F0F1
:1013B0000C9476090C947C0911240C94C1090E94A8
:1013C0009E0970F3959FC1F3950F50E0551F629FE2
:1013D000F001729FBB27F00DB11D639FAA27F00D8E
:1013E000B11DAA1F649F6627B00DA11D661F829FB5
:1013F0002227B00DA11D621F739FB00DA11D621F9A
:10140000839FA00D611D221F749F3327A00D611DB6
:10141000231F849F600D211D822F762F6A2F112498
:101420009F5750409AF0F1F088234AF0EE0FFF1FCB
:10143000BB1F661F771F881F91505040A9F79E3F22
:10144000510580F00C9476090C94C1095F3FE4F3D8
:10145000983ED4F3869577956795B795F795E79578
:101460009F5FC1F7FE2B880F911D9695879597F981
:061470000895F894FFCF7F
:1014760001000080400000A040506572736F6E202E
:1014860065786974696E6720726F6F6D0048617662
:101496006520796F7520657870657269656E63651C
:1014A600640D0A616E79206F662074686573650D38
:1014B6000A73796D70746F6D7320696E2074686538
:1014C6000D0A7061737420343820686F757273006A
:1014D6004861766520796F75206861642066657657
:1014E60065720D0A6368696C6C73206F72206120E7
:1014F600636F7567683F0D0A4E6F3D4C65667420D5
:101506005965733D52696768740053686F72746EEB
:10151600657373206F66206272656174682C0D0AAC
:10152600646966666963756C747920627265617454
:1015360068696E670D0A6F72206661746967756502
:101546003F0D0A4E6F3D6C6566742C205965733DE0
:101556007269676874004D7573636C652C626F649D
:1015660079206F720D0A6865616461636865733F0F
:101576000D0A4E6F3D4C6566742C205965733D52BD
:1015860069676874004E6577206C6F7373206F66A9
:101596000D0A7461737465206F7220736D656C6CCF
:1015A6003F0D0A4E6F3D4C6566742C205965733DA0
:1015B60052696768740057656C636F6D6520746F58
:1015C6002074686520434F5649440D0A536372657B
:1015D600656E696E672E2050726573732074686538
:1015E600200D0A666172206C6566742062757474DB
:1015F6006F6E20746F0D0A626567696E00526F6FB9
:101606006D2069732063757272656E746C790D0A4C
:1016160066756C6C2C20706C6561736520776169EA
:101626007420666F720D0A6C6967687420746F2087
:1016360062652079656C6C6F770D0A746F20737420
:101646006172742E00416E737765722073686F77CE
:10165600732073796D70746F6D730D0A63616E20FC
:101666006E6F7420616C6C6F7720726F6F6D0D0AF0
:10167600656E7472616E63652E005175657374696B
:101686006F6E2074696D6564206F75740D0A506CF9
:101696006561736520737461727420616761696E38
:1016A6002E004E6F2073796D70746F6D73207265A6
:1016B600706F727465640D0A506C656173652065A0
:0C16C6006E74657220726F6F6D2E000054
:00000001FF
